:0400000080313828EB
:100008007E14803120007F08F7002100901E1328FD
:100018002000901E13288231542280313328210079
:10002800101C1D282000101C1D28823175228031CB
:1000380033280B1F29282100941C29282000941CF0
:10004800292881314C21803133280B1F3328210086
:10005800141C33282000141C33288131B921770857
:100068002000FF007E10090080313A288231942256
:100078008031FD0082317A228031D10082317B22A9
:100088008031D20082317C228031D30082317D22BE
:100098008031D400F0308400203085000030FE002C
:1000A8000130FF00823112228031F801F901FA0192
:1000B800FB01FC0120308400003085003130FE0057
:1000C8000030FF00823112227E1020008031F92892
:1000D80022008C018D018E01373021008C001030F8
:1000E8008D0030308E00803023008E008D01173057
:1000F8008C00803024008D008C01FF308E0025009C
:100108008C018D018E0100308B1B01302000D50041
:100118008B1355303C008F00AA308F000F10150844
:10012800E039143895002408E0390C38A400100888
:10013800E039053890001408E039153894003D007E
:100148001D08E03914389D0055303C008F00AA3056
:100158008F000F142000551CB3288B1708008B1331
:1001680008000A30F0000030F1000030F2000030E2
:10017800F30020002008F0072108F13D2208F23D95
:100188002308F33D7308A3007208A2007108A100B8
:100198007008A0002C082D04031908002D088A00F7
:1001A8002C080A008031080080316C2080318231AF
:1001B8004122803182317E22803182310522803194
:1001C80082314B2280318131A62180318131CB218E
:1001D800803181319321803182311E2280318131F9
:1001E8001821803182312A2208008031D8208031BC
:1001F8008B170B1700302000D500D60081317C21E9
:10020800803182318522803100302000D500D6002F
:1002180081316521803182318222803181313321DF
:100228008031FA01FB011729113020009700463070
:100238009800FD3096008F3095001608AF0015081D
:10024800AE0090122100901695302000D5000230A3
:10025800D60082315D22813182318E22080022004F
:100268000D1382312A22813105308131E921813112
:1002780000302000D5000030D6008231692281315B
:1002880000302000D5000030D60082316F220800EF
:100298002000941025001508F4007408F5001608CD
:1002A800F4007408F6007608F1007508F000823151
:1002B800982281317608F3007508F20082313622DF
:1002C800080028001A1D73291A1020005608280053
:1002D800990020005508280098001A1408002000EA
:1002E80056082800990020005508280098000800A2
:1002F8002800131D8A291310200056082800920090
:100308002000550828009100131408002000560802
:10031800280092002000550828009100080030307D
:1003280028009A009B01FF309900F63098001908C0
:100338002000C500280018082000C40014128231CB
:10034800882208003030280093009401FF30920082
:10035800F630910012082000C9002800110820007A
:10036800C800131282318B220800200014102500C7
:100378001108F2007208F3001208F2007208F40083
:100388007408F1007308F000823199220800833064
:10039800250093009401920191011F08FC3902384D
:1003A8009F002000141021001414080028001A1DB2
:1003B800E4291A1071089900700898001A140800A6
:1003C800710899007008980008002000D600B20152
:1003D800B301B001B1015608D5005508CF00CD01D1
:1003E800B401B501080082319722813120003E080E
:1003F8003F04031908003F088A003E080A008231BA
:1004080008008330250097009801960195010C306B
:100418009F042000941021009414080064008001B7
:1004280001310130FE020030FF3B7F087E040319D2
:100438000034132A200010100B149630D500023017
:10044800D6008231632221001014080008302300EE
:100458009F0090309D0004309E00A0309B0001302A
:100468009C0008000030F000F1008131DA2182316F
:100478008231912220000E080800320099019B0168
:100488009D0106309F009E011C180800482A013073
:1004980021009D00E0309E009F019B019C01080007
:1004A800200090122F0896002E0895008031B52064
:1004B800080020005608AD005508AC0008002000D0
:1004C8005608BF005508BE00080020005608B300B3
:1004D8005508B200080020005608B1005508B000C1
:1004E8000800200010108131F7210800043400347E
:1004F80030340034163021009700080028001A1004
:10050800080028001310080028001A140800280002
:100518001314080020009717080028001A14080070
:0C0528000134080008000800080008006A
:020000040001F9
:08000E008CFFF3FFFFFFFFFF71
:00000001FF
