:0400000080312E28F5
:100008007E14803120007F08FB002100101C13287B
:100018002000101C132881318921803129280B1FC9
:100028001F282100941C1F282000941C1F288031A1
:10003800EC20803129280B1F29282100141C29288D
:100048002000141C29288031FE207B082000FF0096
:100058007E10090080313028F001F101F201F3012E
:10006800F401F5012000A001A101A201A3017E1065
:1000780020008031A62822008C018D018E013730A6
:1000880021008C0010308D0030308E00803023002D
:100098008E008D0117308C00803024008D008C017B
:1000A800FF308E0025008C018D018E0100308B1BE6
:1000B80001302000A4008B1355303C008F00AA307B
:1000C8008F000F101508E039143895002408E0391E
:1000D8000C38A4001008E039053890001408E039FD
:1000E800153894003D001D08E03914389D0055303E
:1000F8003C008F00AA308F000F142000241C862893
:100108008B1708008B13080080313F208031813124
:100118006621803181318E218031813141218031C8
:1001280081317A218031813121218031813132211F
:10013800803181311021803181314E2180318131EE
:100148005A21080080318820803100302000A40026
:10015800A5008031D5208031813195218031003052
:100168002000A400A5008031BE2080318131922179
:100178008031BD2828001A1DCC281A102000250817
:100188002800990020002408280098001A14080064
:10019800200025082800990020002408280098003D
:1001A80008002800131DE328131020002508280044
:1001B8009200200024082800910013140800200051
:1001C8002508280092002000240828009100080033
:1001D8002000941025001508F8007808F900160882
:1001E800F8007808FA007A08F7007908F6008131F3
:1001F8009F2108002000141025001108F800780835
:10020800F9001208F8007808FA007A08F700790867
:10021800F6008131A0210800703028009A009B0167
:10022800FF309900D83098001908F3001808F20038
:1002380020001412813198210800703028009300A2
:100248009401FF309200D83091001208F50011088F
:10025800F4002000131281319B210800833025000F
:1002680093009401920191011F08FC3902389F0004
:100278002000141021001414080083302500970072
:100288009801960195010C309F04200094102100DC
:1002980094140800200010100B149E30A4000130A4
:1002A800A5008131832121001014080008302300A3
:1002B8009F0090309D0004309E00A0309B000130CC
:1002C8009C000800320099019B019D0106309F00A7
:1002D8009E011C1808006D29700871040319080094
:1002E80071088A0070080A00813108000130210075
:1002F8009D00E0309E009F019B019C0108002000AA
:100308002508F1002408F0000800200010108131B1
:1003180070210800163021009700080028001A10E4
:10032800080028001310080028001A1408002800E4
:0A0338001314080008000800080074
:020000040001F9
:08000E008CFFF3FFFFFFFFFF71
:00000001FF
