:0400000080312E28F5
:100008007E14803120007F08FB002100901E1328F9
:100018002000901E13288331CC23803129280B1F00
:100028001F282100941C1F282000941C1F2882319F
:10003800F922803129280B1F29282100141C29287E
:100048002000141C292883310B237B082000FF0083
:100058007E10090080313028C73084008330850045
:100068001200E1001200E2001200E3001200E400B6
:100078001200E500F0308400203085000030FE00DA
:100088000130FF00833165238031FC01FD01203000
:100098008400003085002C30FE000030FF008331E2
:1000A80065237E1020008131262920004403031D8A
:1000B800080027082B02031D632826082A020318B4
:1000C8008A289D28031022000E1C0314031C6F2885
:1000D80022000E14962822000E10962803102200E3
:1000E8008E1C0314031C7B2822008E1496282200E1
:1000F8008E109628031022000E1D0314031C872857
:1001080022000E15962822000E1196282000650858
:10011800003A03196628013A03197228033A0319A9
:100128007E289628200028082607A6002908273DAB
:10013800A7002B082502031DA3282A082402031C54
:10014800AF28BF2822000E10BB2822008E10BB2823
:1001580022000E11BB2820006508003A0319A628C2
:10016800013A0319A928033A0319AC28BB2820002F
:10017800C401AA01AB010A30AA070030AB3D080050
:100188002000D80044030319080054080319080084
:100198003D30540203180800C401C40A5808D600A8
:1001A8005608E500E02822000E14EC2822008E14E0
:1001B800EC2822000E15EC2820006508003A0319E7
:1001C800D728013A0319DA28033A0319DD28EC285D
:1001D8002000AA01AB015408D600D7015608CC006C
:1001E8005708CD00E830CE000330CF0082314122DD
:1001F800803120004D08A5004C08A40002305502AB
:10020800031C1D295508D600D701D635D70D560829
:10021800FF3ECC00FF30573DCD002508CF00240815
:10022800CE008131BD21803120004D08A9004C0845
:1002380020292508A9002408A8002908A7002808BB
:10024800A60008008231232281318B170B1700305A
:100258002000CC00CD008231A92281318331D823FE
:10026800813100302000CC00CD00823192228131D2
:100278008331D5238131823179228131FC01FD011D
:1002880004302000D9005908D4000A30DA005A088E
:10029800D50000308031C42081318331E42381319D
:1002A800003A031D512904302000D9005908D40010
:1002B8000A30DA005A08D50001308031C420813173
:1002C8008331E4238131003A031D6429043020007E
:1002D800D9005908D4000A30DA005A08D50002308B
:1002E8008031C42081318331E4238131003A031DF8
:1002F80077297D2922008C018D018E01373021005C
:100308008C0090308D0030308E00803023008E00BD
:100318008D0117308C00803024008D008C01F8305E
:100328008E0025008C018D018E0100308B1B013061
:100338002000CC008B1355303C008F00AA308F0072
:100348000F101508E039143895002408E0390C38E6
:10035800A4001408E0391538940055308F00AA30ED
:100368008F000F1420004C1CBB298B1708008B131F
:1003780008002000D101D2014C084D040319ED29D1
:10038800D301D30ACD1BD2290130CC35CD0D890B31
:10039800C9290130D0005008D307C6290130D1350A
:1003A800D20D890BD3294D084F02031DDD294C08B6
:1003B8004E02031CE4294C08CE024D08CF3B5114D1
:1003C8000130CD36CC0C890BE5290130D302031D51
:1003D800D2295208CD005108CC0008000030F000A6
:1003E800F10083313B2381318331ED2381310030AA
:1003F800F000F10083312C2381318331EA238131EC
:1004080073082000BB007208BA008E1E172A0E1E41
:10041800122A0330FC000030FD0008000230FC0006
:100428000030FD0008000E1E1E2A0430FC000030BB
:10043800FD0008000130FC000030FD00080081319B
:100448007E2182318331872382318331D1238231E6
:1004580083315823823183319023823183311D23A4
:1004680082318231E72282318231D5228231823152
:10047800C02282318331712308002000D001D101CC
:100488004C1C4A2A4E08D0074F08D13D0130CE35C2
:10049800CF0D890B4B2A0130CD36CC0C890B502A55
:1004A8004C084D04031D442A5108CD005008CC00C7
:1004B8000800803159200A30F0000030F100003087
:1004C800F2000030F30020002008F0072108F13D79
:1004D8002208F23D2308F33D7308A3007208A20026
:1004E8007108A1007008A000080022000D138331D4
:1004F80071238231053083314A2382310030200054
:10050800CC000030CD008331BB2382310030200085
:10051800CC000030CD008331C123080028001A1D0B
:10052800A02A1A1020004D082800990020004C0825
:10053800280098001A14080020004D082800990087
:1005480020004C082800980008002800131DB72A2E
:10055800131020004D082800920020004C082800A5
:1005680091001314080020004D0828009200200074
:100578004C08280091000800200097014930980095
:10058800133096009501901221009016E730200054
:10059800CC000330CD008331B52382318331E12390
:1005A800080028009A019B01FF309900F630980056
:1005B80019082000DE00280018082000DD001412A9
:1005C8008331DB230800280093019401FF30920057
:1005D800F630910012082000E000280011082000E1
:1005E800DF0013128331DE23080020009410250059
:1005F8001508F8007808F9001608F8007808FA00D5
:100608007A08F7007908F60083319923080020005A
:10061800141025001108F8007808F9001208F800ED
:100628007808FA007A08F7007908F6008331A723DA
:1006380008008330250093009401920191011F085E
:10064800FC3902389F0020001410210014140800FF
:1006580028001A1D362B1A10710899007008980086
:100668001A140800710899007008980008002800FA
:10067800131D452B13107108920070089100131474
:100688000800710892007008910008002000CD0051
:10069800AE01AF01AC01AD014D08CC004C08CA0059
:1006A800C801B001B1010800833025009700980106
:1006B800960195010C309F04200094102100941499
:1006C80008006400800101310130FE020030FF3B68
:1006D8007F087E0403190034662B083023009F002E
:1006E80090309D0004309E0033309B009C01080030
:1006F80020005B085C04031908005C088A005B089A
:100708000A00833108000230320099009B019D01E4
:1007180006309F009E010800013021009D00E03056
:100728009E009F019B019C0108007708F500760850
:10073800F4008331A02308007508F3007408F20060
:100748008131F22108007708F5007608F40083313A
:10075800AE2308007508F3007408F2008131F22115
:10076800080020004D08DC004C08DB0008002000D1
:100778004D08AF004C08AE00080020004D08AD0041
:100788004C08AC0008000434003430340034013420
:100798002000901283317C23080016302100970036
:1007A800080028001A100800280013100800280064
:1007B8001A140800280013140800200097170800CE
:1007C80020004408080082315D22080028001A141D
:0807D8000800280013140800BA
:020000040001F9
:08000E00ECFFF3FFFFFFFFFF11
:00000001FF
