:0400000080313C28E7
:100008007E14803120007F08FB000B1F152821007B
:10001800111E15282000111E15288031CB20803193
:1000280037280B1F21282100911E21282000911E0E
:1000380021288031E620803137280B1F2D28210008
:10004800941C2D282000941C2D28813126218031D4
:1000580037280B1F37282100141C37282000141CB0
:100068003728813138217B082000FF007E100900E5
:1000780080313E28F001F101F201F301F401F501AC
:1000880020308400003085004830813179217E108D
:10009800200081317F2922008C018D018E013730AB
:1000A80021008C0090308D00B0308E00803023000D
:1000B8008E0080308D0033308C00403024008D005D
:1000C8008C017F308E0025008C018D018E0100305F
:1000D8008B1B01302000E8008B1355303C008F004B
:1000E800AA308F000F101508E0391438950024083D
:1000F800E0390C38A4001408E039153894003D00A4
:100108001D08E03914389D0055303C008F00AA3096
:100118008F000F142000681C93288B1708008B137E
:10012800080080314F208031813166218031813152
:100138008321803181315921803181317021803191
:1001480081311321803181314A218031813100216F
:1001580080318031B020080021009112111208303E
:1001680023009F0090309D0004309E00A0309B002B
:1001780001309C00F501F40120302000E8006808F7
:10018800F300F201F101F00121009116080020307E
:1001980073020318E3287408403E860087010108AB
:1001A80023009A000130F6007608F4072030740224
:1001B8000318F4010130F6007608F307080021005F
:1001C8001112080023009D1CEB281D121D1619088A
:1001D800F6007208203E860087017608810001300B
:1001E800F6007608F207203072020318F201013097
:1001F800F6007608F0070800703028009A009B0186
:10020800FF309900D830980019082000E300280032
:1002180018082000E200141281318721080070308C
:10022800280093009401FF309200D8309100120802
:100238002000E700280011082000E6001312813191
:100248008A2108002000941025001508F800780875
:10025800F9001608F8007808FA007A08F700790813
:10026800F60081318D2108002000141025001108A6
:10027800F8007808F9001208F8007808FA007A08F7
:10028800F7007908F60081318E21080083302500B7
:1002980093009401920191011F08FC3902389F00D4
:1002A8002000141021001414080083302500970042
:1002B8009801960195010C309F04200094102100AC
:1002C80094140800320099019B019D0106309F009B
:1002D8009E011C1808006D29013021009D009030F6
:1002E8009E009F019B019C01080064008001013170
:1002F800890B7A2900348031952081318229163082
:1003080021009700080028001A1408002800131478
:06031800080008000800C7
:020000040001F9
:08000E008CFFF3FFFFFFFFFF71
:00000001FF
