:0400000080312E28F5
:100008007E14803120007F08F7002100901E1328FD
:100018002000901E132883317323803129280B1F59
:100028001F282100941C1F282000941C1F2882319F
:10003800CC22803129280B1F29282100141C2928AB
:100048002000141C29288231DE2277082000FF00B6
:100058007E100900803130286E308400833085009E
:100068001200DD001200DE001200DF001200E000C6
:100078001200E100F0308400203085000030FE00DE
:100088000130FF0083311A238031F801F901FA01A8
:10009800FB01FC01FD012030840000308500283080
:1000A800FE000030FF0083311A237E1020008131CA
:1000B8002A2920004203031D080027082B02031DDC
:1000C800672826082A0203188E28A1280310220070
:1000D8000E1C0314031C732822000E149A282200F5
:1000E8000E109A28031022008E1C0314031C7F286C
:1000F80022008E149A2822008E109A2803102200BB
:100108000E1D0314031C8B2822000E159A282200AA
:100118000E119A2820006108003A03196A28013A4A
:1001280003197628033A031982289A2820002808F8
:100138002607A6002908273DA7002B082502031D2E
:10014800A7282A082402031CB328C32822000E105B
:10015800BF2822008E10BF2822000E11BF282000C1
:100168006108003A0319AA28013A0319AD28033A8D
:100178000319B028BF282000C201AA01AB010A3028
:10018800AA070030AB3D08002000D4004203031941
:1001980008005008031908003D30500203180800F1
:1001A800C201C20A5408D2005208E100E428220021
:1001B8000E14F02822008E14F02822000E15F028C4
:1001C80020006108003A0319DB28013A0319DE28E8
:1001D800033A0319E128F0282000AA01AB015008CE
:1001E800D200D3015208C8005308C900E830CA0039
:1001F8000330CB0082311422803120004908A50049
:100208004808A40002305102031C21295108D200D9
:10021800D301D235D30D5208FF3EC800FF30533DFD
:10022800C9002508CB002408CA008131C1218031CA
:1002380020004908A900480824292508A9002408FD
:10024800A8002908A7002808A60008008131F6217F
:1002580081318B170B1700302000C800C90082318C
:100268007C22813183317F23813100302000C80016
:10027800C90082316522813183317C238131823109
:100288004C228131FA01FB0104302000D5005508C9
:10029800D0000A30D6005608D10000308031C8207E
:1002A800813183318B238131003A031D5529043074
:1002B8002000D5005508D0000A30D6005608D100D5
:1002C80001308031C820813183318B238131003A5C
:1002D800031D682904302000D5005508D0000A30D5
:1002E800D6005608D10002308031C82081318331D0
:1002F8008B238131003A031D7B29812922008C013F
:100308008D018E01373021008C0090308D00303007
:100318008E00803023008E008D0117308C008030D5
:1003280024008D008C01F8308E0025008C018D0191
:100338008E0100308B1B01302000C8008B13553014
:100348003C008F00AA308F000F101508E0391438D0
:1003580095002408E0390C38A4001408E039153851
:10036800940055308F00AA308F000F142000481CCD
:10037800BF298B1708008B1308002000CD01CE0180
:10038800480849040319F129CF01CF0AC91BD62906
:100398000130C835C90D890BCD290130CC004C0876
:1003A800CF07CA290130CD35CE0D890BD729490889
:1003B8004B02031DE12948084A02031CE8294808A2
:1003C800CA024908CB3B4D140130C936C80C890B09
:1003D800E9290130CF02031DD6294E08C9004D086E
:1003E800C800080081318221813183313C23813169
:1003F80083317823813183310D2381318331452342
:1004080081318231F02281318231BA2281318231C7
:10041800A822813182319322813183312623080039
:100428002000CC01CD01481C1D2A4A08CC074B08E6
:10043800CD3D0130CA35CB0D890B1E2A0130C93696
:10044800C80C890B232A48084904031D172A4D089C
:10045800C9004C08C800080080315D200A30F0004F
:100468000030F1000030F2000030F30020002008D6
:10047800F0072108F13D2208F23D2308F33D7308F7
:10048800A3007208A2007108A1007008A00008006B
:1004980022000D1383312623823105308231FF2259
:1004A800823100302000C8000030C9008331622347
:1004B800823100302000C8000030C9008331682331
:1004C800080028001A1D732A1A102000490828005D
:1004D800990020004808280098001A1408002000F5
:1004E80049082800990020004808280098000800BA
:1004F8002800131D8A2A131020004908280092009A
:10050800200048082800910013140800200049081A
:1005180028009200200048082800910008002000C8
:1005280097014930980013309600950190122100E8
:1005380090168E302000C8000330C90083315C2338
:10054800823183318823080028009A019B01FF30FB
:100558009900F630980019082000DA0028001808D9
:100568002000D90014128331822308002800930147
:100578009401FF309200F630910012082000DC0050
:10058800280011082000DB0013128331852308009E
:100598002000941025001508F4007408F5001608CA
:1005A800F4007408F6007608F3007508F200833149
:1005B8004E2308002000141025001108F4007408C8
:1005C800F5001208F4007408F6007608F3007508C0
:1005D800F2008331552308008330250093009401ED
:1005E800920191011F08FC3902389F002000141065
:1005F8002100141408002000C900AE01AF01AC01AD
:10060800AD014908C8004808C700C601B001B101DA
:1006180008008330250097009801960195010C3059
:100628009F042000941021009414080064008001A5
:1006380001310130FE020030FF3B7F087E040319C0
:1006480000341B2B083023009F0090309D0004309D
:100658009E0033309B009C01080020005708580476
:100668000319080058088A0057080A00833108004F
:100678000230320099009B019D0106309F009E01C7
:100688000800013021009D00E0309E009F019B0181
:100698009C0108007308F1007208F000833191236F
:1006A80008007308F1007208F000833192230800F3
:1006B80020004908D8004808D70008002000490849
:1006C800AF004808AE00080020004908AD004808FF
:1006D800AC00080004340034303400340134200005
:1006E800901283313123080016302100970008004A
:1006F80028001A10080028001310080028001A14EF
:10070800080028001314080020009717080020008C
:0E071800420808008231302208000800080064
:020000040001F9
:08000E00ECFFF3FFFFFFFFFF11
:00000001FF
