:0400000080312E28F5
:100008007E14803120007F08FB002100901E1328F9
:100018002000901E13288231DE22803129280B1FF0
:100028001F282100941C1F282000941C1F2882319F
:100038004522803129280B1F29282100141C292832
:100048002000141C2928823157227B082000FF0039
:100058007E10090080313028D93084008230850034
:100068001200DD001200DE001200DF001200E000C6
:100078001200E100F0308400203085000030FE00DE
:100088000130FF00823193228031F001F101F20149
:10009800F301F401F5012030840000308500283098
:1000A800FE000030FF00823193227E102000803154
:1000B800BF282000D4004203031908005008031980
:1000C80008003D30500203180800C201C20A540853
:1000D800D2005208E100792822000E148528220057
:1000E8008E14852822000E15852820006108003A04
:1000F80003197028013A03197328033A031976285B
:1001080085282000AE01AF015008D200D301520863
:10011800C8005308C900E830CA000330CB00813159
:10012800A921803120004908A9004808A800023008
:100138005102031CB6285108D200D301D235D30D81
:100148005208FF3EC800FF30533DC9002908CB00C4
:100158002808CA0081315621803120004908AD00A5
:100168004808B9282908AD002808AC002D08AB00BC
:100178002C08AA00080081318B2180318B170B17BE
:1001880000302000C800C9008131F521803182315A
:10019800EA22803100302000C800C9008131DE2108
:1001A80080318231E72280318131C5218031F201ED
:1001B800F30104302000D5005508D0000A30D600DD
:1001C8005608D100003080315D2080318231F6221E
:1001D8008031003A031DEA2804302000D500550874
:1001E800D0000A30D6005608D100013080315D2099
:1001F80080318231F6228031003A031DFD28043017
:100208002000D5005508D0000A30D6005608D10085
:10021800023080315D2080318231F6228031003A0F
:10022800031D1029162922008C018D018E013730FB
:1002380021008C0090308D0030308E0080302300FB
:100248008E008D0117308C00803024008D008C01C9
:10025800F8308E0025008C018D018E0100308B1B3B
:1002680001302000C8008B1355303C008F00AA30A5
:100278008F000F101508E039143895002408E0396C
:100288000C38A4001408E0391538940055308F0054
:10029800AA308F000F142000481C54298B1708001F
:1002A8008B1308002000CE01CF0148084904031928
:1002B8008629CD01CD0AC91B6B290130C835C90D66
:1002C800890B62290130CC004C08CD075F29013029
:1002D800CE35CF0D890B6C2949084B02031D7629B1
:1002E80048084A02031C7D294808CA024908CB3B32
:1002F8004E140130C936C80C890B7E290130CD0255
:10030800031D6B294F08C9004E08C8000800813139
:10031800172181318231B52281318231E322813145
:100328008231862281318231BE228131823133226B
:1003380081318231692281318231212281318231B8
:100348000C22813182319F2208002000CC01CD018E
:10035800481CB2294A08CC074B08CD3D0130CA35A4
:10036800CB0D890BB3290130C936C80C890BB829C4
:1003780048084904031DAC294D08C9004C08C800A9
:10038800080022000D1382319F228131053082310D
:100398007822813100302000C8000030C900823145
:1003A800CD22813100302000C8000030C9008231E0
:1003B800D322080028001A1DEC291A102000490829
:1003C8002800990020004808280098001A140800FE
:1003D80020004908280099002000480828009800B3
:1003E80008002800131D032A1310200049082800BC
:1003F80092002000480828009100131408002000EB
:1004080049082800920020004808280091000800A8
:1004180020009701493098001330960095019012FA
:1004280021009016F9302000C8000230C90082313E
:10043800C72282318231F322080028009A019B01E9
:10044800FF309900F630980019082000DC002800D9
:1004580018082000DB0014128231ED220800280061
:1004680093019401FF309200F630910012082000A9
:10047800DA00280011082000D90013128231F02276
:1004880008002000941025001508F8007808F900E5
:100498001608F8007808FA007A08F7007908F600D4
:1004A8008231FA2208002000141025001108F800F3
:1004B8007808F9001208F8007808FA007A08F700B6
:1004C8007908F6008231FB2208008330250093006A
:1004D8009401920191011F08FC3902389F00200005
:1004E80014102100141408002000C900B201B3013F
:1004F800B001B1014908C8004808C700C601B401E5
:10050800B5010800833025009700980196019501F0
:100518000C309F04200094102100941408006400FB
:10052800800101310130FE020030FF3B7F087E046C
:1005380003190034942A083023009F0090309D004E
:1005480004309E0033309B009C01080020005708AF
:1005580058040319080058088A0057080A0082310D
:1005680008000230320099009B019D0106309F006F
:100578009E010800013021009D00E0309E009F018F
:100588009B019C01080020004908D8004808D700B2
:10059800080020004908B3004808B20008002000FD
:1005A8004908B1004808B000080004340034303469
:1005B80000340134200090128231AA22080016303B
:1005C80021009700080028001A10080028001310BE
:1005D800080028001A140800280013140800200036
:1005E80097170800200042080800080008000800C3
:020000040001F9
:08000E00ECFFF3FFFFFFFFFF11
:00000001FF
